{
  "contractName": "Cash",
  "abi": [
    {
      "constant": true,
      "inputs": [],
      "name": "name",
      "outputs": [
        {
          "name": "",
          "type": "bytes32"
        }
      ],
      "payable": false,
      "stateMutability": "view",
      "type": "function"
    },
    {
      "constant": false,
      "inputs": [
        {
          "name": "spender",
          "type": "address"
        },
        {
          "name": "tokens",
          "type": "uint256"
        }
      ],
      "name": "approve",
      "outputs": [
        {
          "name": "",
          "type": "bool"
        }
      ],
      "payable": false,
      "stateMutability": "nonpayable",
      "type": "function"
    },
    {
      "constant": true,
      "inputs": [],
      "name": "totalSupply",
      "outputs": [
        {
          "name": "",
          "type": "uint256"
        }
      ],
      "payable": false,
      "stateMutability": "view",
      "type": "function"
    },
    {
      "constant": true,
      "inputs": [],
      "name": "issuer",
      "outputs": [
        {
          "name": "",
          "type": "address"
        }
      ],
      "payable": false,
      "stateMutability": "view",
      "type": "function"
    },
    {
      "constant": true,
      "inputs": [
        {
          "name": "",
          "type": "address"
        }
      ],
      "name": "balances",
      "outputs": [
        {
          "name": "",
          "type": "uint256"
        }
      ],
      "payable": false,
      "stateMutability": "view",
      "type": "function"
    },
    {
      "constant": true,
      "inputs": [],
      "name": "decimals",
      "outputs": [
        {
          "name": "",
          "type": "uint8"
        }
      ],
      "payable": false,
      "stateMutability": "view",
      "type": "function"
    },
    {
      "constant": true,
      "inputs": [
        {
          "name": "tokenOwner",
          "type": "address"
        }
      ],
      "name": "balanceOf",
      "outputs": [
        {
          "name": "",
          "type": "uint256"
        }
      ],
      "payable": false,
      "stateMutability": "view",
      "type": "function"
    },
    {
      "constant": false,
      "inputs": [],
      "name": "renounceOwnership",
      "outputs": [],
      "payable": false,
      "stateMutability": "nonpayable",
      "type": "function"
    },
    {
      "constant": true,
      "inputs": [],
      "name": "owner",
      "outputs": [
        {
          "name": "",
          "type": "address"
        }
      ],
      "payable": false,
      "stateMutability": "view",
      "type": "function"
    },
    {
      "constant": true,
      "inputs": [],
      "name": "isOwner",
      "outputs": [
        {
          "name": "",
          "type": "bool"
        }
      ],
      "payable": false,
      "stateMutability": "view",
      "type": "function"
    },
    {
      "constant": true,
      "inputs": [],
      "name": "symbol",
      "outputs": [
        {
          "name": "",
          "type": "bytes32"
        }
      ],
      "payable": false,
      "stateMutability": "view",
      "type": "function"
    },
    {
      "constant": false,
      "inputs": [
        {
          "name": "receiver",
          "type": "address"
        },
        {
          "name": "tokens",
          "type": "uint256"
        }
      ],
      "name": "transfer",
      "outputs": [
        {
          "name": "",
          "type": "bool"
        }
      ],
      "payable": false,
      "stateMutability": "nonpayable",
      "type": "function"
    },
    {
      "constant": true,
      "inputs": [
        {
          "name": "tokenOwner",
          "type": "address"
        },
        {
          "name": "spender",
          "type": "address"
        }
      ],
      "name": "allowance",
      "outputs": [
        {
          "name": "",
          "type": "uint256"
        }
      ],
      "payable": false,
      "stateMutability": "view",
      "type": "function"
    },
    {
      "constant": false,
      "inputs": [
        {
          "name": "newOwner",
          "type": "address"
        }
      ],
      "name": "transferOwnership",
      "outputs": [],
      "payable": false,
      "stateMutability": "nonpayable",
      "type": "function"
    },
    {
      "payable": true,
      "stateMutability": "payable",
      "type": "fallback"
    },
    {
      "anonymous": false,
      "inputs": [
        {
          "indexed": false,
          "name": "currency",
          "type": "bytes32"
        },
        {
          "indexed": false,
          "name": "value",
          "type": "uint256"
        }
      ],
      "name": "ViaCashIssued",
      "type": "event"
    },
    {
      "anonymous": false,
      "inputs": [
        {
          "indexed": false,
          "name": "currency",
          "type": "bytes32"
        },
        {
          "indexed": false,
          "name": "value",
          "type": "uint256"
        }
      ],
      "name": "ViaCashRedeemed",
      "type": "event"
    },
    {
      "anonymous": false,
      "inputs": [
        {
          "indexed": true,
          "name": "previousOwner",
          "type": "address"
        },
        {
          "indexed": true,
          "name": "newOwner",
          "type": "address"
        }
      ],
      "name": "OwnershipTransferred",
      "type": "event"
    },
    {
      "anonymous": false,
      "inputs": [
        {
          "indexed": true,
          "name": "tokenOwner",
          "type": "address"
        },
        {
          "indexed": true,
          "name": "spender",
          "type": "address"
        },
        {
          "indexed": false,
          "name": "tokens",
          "type": "uint256"
        }
      ],
      "name": "Approval",
      "type": "event"
    },
    {
      "anonymous": false,
      "inputs": [
        {
          "indexed": true,
          "name": "from",
          "type": "address"
        },
        {
          "indexed": true,
          "name": "to",
          "type": "address"
        },
        {
          "indexed": false,
          "name": "tokens",
          "type": "uint256"
        }
      ],
      "name": "Transfer",
      "type": "event"
    },
    {
      "constant": false,
      "inputs": [
        {
          "name": "_name",
          "type": "bytes32"
        },
        {
          "name": "_owner",
          "type": "address"
        }
      ],
      "name": "initialize",
      "outputs": [],
      "payable": false,
      "stateMutability": "nonpayable",
      "type": "function"
    },
    {
      "constant": false,
      "inputs": [
        {
          "name": "sender",
          "type": "address"
        },
        {
          "name": "receiver",
          "type": "address"
        },
        {
          "name": "tokens",
          "type": "uint256"
        }
      ],
      "name": "transferFrom",
      "outputs": [
        {
          "name": "",
          "type": "bool"
        }
      ],
      "payable": false,
      "stateMutability": "nonpayable",
      "type": "function"
    },
    {
      "constant": false,
      "inputs": [
        {
          "name": "txId",
          "type": "bytes32"
        },
        {
          "name": "result",
          "type": "uint256"
        },
        {
          "name": "rtype",
          "type": "bytes32"
        }
      ],
      "name": "convert",
      "outputs": [],
      "payable": false,
      "stateMutability": "nonpayable",
      "type": "function"
    }
  ],
  "bytecode": "0x60806040819052603780546001600160a01b0319163317908190556001600160a01b0316906000907f8be0079c531659141344cd1fd0a4f28419497f9722a3daafe3b4186f6b6457e0908290a3615a388061005b6000396000f3fe608060405260043610620001165760003560e01c806370a0823111620000a357806395d89b41116200006d57806395d89b41146200036a578063a9059cbb1462000382578063c6505f8514620003bf578063dd62ed3e14620003f9578063f2fde38b14620004385762000116565b806370a0823114620002eb578063715018a614620003225780638da5cb5b146200033a5780638f32d59b14620003525762000116565b806323b872dd11620000e557806323b872dd146200020257806327e235e31462000249578063313ce56714620002805780636910e33414620002ae5762000116565b806306fdde03146200013b578063095ea7b3146200016557806318160ddd14620001b65780631d14384814620001ce575b346200012157600080fd5b620001393433600160d91b6432ba3432b9026200046f565b005b3480156200014857600080fd5b506200015362000b82565b60408051918252519081900360200190f35b3480156200017257600080fd5b50620001a2600480360360408110156200018b57600080fd5b506001600160a01b03813516906020013562000b88565b604080519115158252519081900360200190f35b348015620001c357600080fd5b506200015362000bee565b348015620001db57600080fd5b50620001e662000bf4565b604080516001600160a01b039092168252519081900360200190f35b3480156200020f57600080fd5b50620001a2600480360360608110156200022857600080fd5b506001600160a01b0381358116916020810135909116906040013562000c03565b3480156200025657600080fd5b5062000153600480360360208110156200026f57600080fd5b50356001600160a01b03166200113a565b3480156200028d57600080fd5b50620002986200114c565b6040805160ff9092168252519081900360200190f35b348015620002bb57600080fd5b506200013960048036036040811015620002d457600080fd5b50803590602001356001600160a01b031662001151565b348015620002f857600080fd5b5062000153600480360360208110156200031157600080fd5b50356001600160a01b03166200117b565b3480156200032f57600080fd5b506200013962001196565b3480156200034757600080fd5b50620001e6620011f4565b3480156200035f57600080fd5b50620001a262001203565b3480156200037757600080fd5b506200015362001214565b3480156200038f57600080fd5b50620001a260048036036040811015620003a857600080fd5b506001600160a01b0381351690602001356200121a565b348015620003cc57600080fd5b506200013960048036036060811015620003e557600080fd5b5080359060208101359060400135620012eb565b3480156200040657600080fd5b5062000153600480360360408110156200041f57600080fd5b506001600160a01b0381358116916020013516620014dd565b3480156200044557600080fd5b5062000139600480360360208110156200045e57600080fd5b50356001600160a01b031662001508565b826200047a57600080fd5b6000805b306000908152603b60205260409020548110156200051557306000908152603b60205260409020805484919083908110620004b557fe5b90600052602060002090600202016000015414156200050c57306000908152603b60205260409020805486919083908110620004ed57fe5b6000918252602090912060016002909202018101805490920190915591505b6001016200047e565b816200058257306000908152603b602052604090208054849190839081106200053a57fe5b60009182526020808320600290920290910192909255308152603b909152604090208054869190839081106200056c57fe5b9060005260206000209060020201600101819055505b5060009050805b306000908152603c60205260409020548110156200063357306000908152603c6020526040902080546001600160a01b038616919083908110620005c957fe5b60009182526020909120600290910201546001600160a01b03161480156200061f5750306000908152603c602052604090208054849190839081106200060b57fe5b906000526020600020906002020160010154145b156200062a57600191505b60010162000589565b81620006bc57306000908152603c602052604090208054859190839081106200065857fe5b6000918252602080832060029290920290910180546001600160a01b0319166001600160a01b039490941693909317909255308152603c90915260409020805484919083908110620006a657fe5b9060005260206000209060020201600101819055505b82600160d91b6432ba3432b90214156200092957604051620006de9062001e6b565b604051809103906000f080158015620006fb573d6000803e3d6000fd5b5060408051600160e61b63012b8bff028152600160e31b63086c2e6d02600482015230602482015290516001600160a01b039290921691634ae2ffc0916044808201926020929091908290030181600087803b1580156200075b57600080fd5b505af115801562000770573d6000803e3d6000fd5b505050506040513d60208110156200078757600080fd5b5051603d55603954600160ca1b66159a584b5554d102146200092357604051620007b19062001e79565b604051809103906000f080158015620007ce573d6000803e3d6000fd5b506001600160a01b031663b2b761306039546040516020018080600160a81b6a5669615f5553445f746f5f02815250600b01828152602001915050604051602081830303815290604052306040518363ffffffff1660e01b8152600401808060200180600160e91b623b32b90281525060200180600160e31b63086c2e6d02815250602001836001600160a01b03166001600160a01b03168152602001828103825284818151815260200191508051906020019080838360005b83811015620008a257818101518382015260200162000888565b50505050905090810190601f168015620008d05780820380516001836020036101000a031916815260200191505b509350505050602060405180830381600087803b158015620008f157600080fd5b505af115801562000906573d6000803e3d6000fd5b505050506040513d60208110156200091d57600080fd5b5051603e555b62000a98565b604051620009379062001e79565b604051809103906000f08015801562000954573d6000803e3d6000fd5b50603954604080516020808201889052600160e01b635f746f5f0282840152604480830194909452825180830390940184526064820192839052600160e41b630b2b761302909252600160f11b6132b9026088820152600160e31b63086c2e6d0260a88201523060c88201819052608060688301908152845160e884015284516001600160a01b03969096169563b2b76130959492939192839261010801919086019080838360005b8381101562000a17578181015183820152602001620009fd565b50505050905090810190601f16801562000a455780820380516001836020036101000a031916815260200191505b509350505050602060405180830381600087803b15801562000a6657600080fd5b505af115801562000a7b573d6000803e3d6000fd5b505050506040513d602081101562000a9257600080fd5b5051603e555b50506040805161010081018252600160d81b6469737375650281526001600160a01b03938416602080830191825282840196875260608301948552603d5460808401908152600060a0850181815260395460c0870190815260e08701838152603e80548552603f909652888420975188559551600180890180546001600160a01b03191692909c1691909117909a559951600287015596516003860155905160048501559451600584015595516006830155516007909101559254835492830184559290527f352feee0eea125f11f791c1b77524172e9bc20f1b719b6cef0fc24f64db8e15e0155565b60395481565b3360008181526003602090815260408083206001600160a01b038716808552908352818420869055815186815291519394909390927f8c5be1e5ebec7d5bd14f71427d1e84f3dd0314c0f7b2291e5b200ac8c7c3b925928290030190a350600192915050565b60015490565b6000546001600160a01b031681565b6001600160a01b03831660009081526002602052604081205482111562000c2957600080fd5b6001600160a01b038416600090815260036020908152604080832033845290915290205482111562000c5a57600080fd5b6001600160a01b0383163014156200102857603954336001600160a01b03166306fdde036040518163ffffffff1660e01b815260040160206040518083038186803b15801562000ca957600080fd5b505afa15801562000cbe573d6000803e3d6000fd5b505050506040513d602081101562000cd557600080fd5b5051141562000d025762000cea82846200152a565b1562000cf95750600162001133565b50600062001133565b60005b603860009054906101000a90046001600160a01b03166001600160a01b03166378a895676040518163ffffffff1660e01b815260040160206040518083038186803b15801562000d5457600080fd5b505afa15801562000d69573d6000803e3d6000fd5b505050506040513d602081101562000d8057600080fd5b50518110156200101d5760385460408051600160e11b6327b2595f0281526004810184905290516000926001600160a01b031691634f64b2be916024808301926020929190829003018186803b15801562000dda57600080fd5b505afa15801562000def573d6000803e3d6000fd5b505050506040513d602081101562000e0657600080fd5b505160408051600160e01b6306fdde03028152905191925033916306fdde0391600480820192602092909190829003018186803b15801562000e4757600080fd5b505afa15801562000e5c573d6000803e3d6000fd5b505050506040513d602081101562000e7357600080fd5b505160385460408051600160e11b632fea58450281526001600160a01b03858116600483015291519190921691635fd4b08a916024808301926020929190829003018186803b15801562000ec657600080fd5b505afa15801562000edb573d6000803e3d6000fd5b505050506040513d602081101562000ef257600080fd5b505114801562000f8d575060385460408051600160e01b63f429f19b0281526001600160a01b0384811660048301529151919092169163f429f19b916024808301926020929190829003018186803b15801562000f4e57600080fd5b505afa15801562000f63573d6000803e3d6000fd5b505050506040513d602081101562000f7a57600080fd5b5051600160ca1b66159a58509bdb990214155b156200101357620010078486336001600160a01b03166306fdde036040518163ffffffff1660e01b815260040160206040518083038186803b15801562000fd357600080fd5b505afa15801562000fe8573d6000803e3d6000fd5b505050506040513d602081101562000fff57600080fd5b50516200046f565b60019250505062001133565b5060010162000d05565b506000905062001133565b6001600160a01b03841660009081526002602052604090205462001053908363ffffffff62001a8816565b6001600160a01b038516600090815260026020908152604080832093909355600381528282203383529052205462001092908363ffffffff62001a8816565b6001600160a01b038086166000908152600360209081526040808320338452825280832094909455918616815260029091522054620010d8908363ffffffff62001acc16565b6001600160a01b0380851660008181526002602090815260409182902094909455805186815290519193928816927fddf252ad1be2c89b69c2b068fc378daa952ba7f163c4a11628f55a4df523b3ef92918290030190a35060015b9392505050565b60026020526000908152604090205481565b600281565b603880546001600160a01b0319166001600160a01b03929092169190911790556039819055603a55565b6001600160a01b031660009081526002602052604090205490565b620011a062001203565b620011aa57600080fd5b6037546040516000916001600160a01b0316907f8be0079c531659141344cd1fd0a4f28419497f9722a3daafe3b4186f6b6457e0908390a3603780546001600160a01b0319169055565b6037546001600160a01b031690565b6037546001600160a01b0316331490565b603a5481565b336000908152600260205260408120548211156200123757600080fd5b3360009081526002602052604090205462001259908363ffffffff62001a8816565b33600090815260026020526040808220929092556001600160a01b038516815220546200128d908363ffffffff62001acc16565b6001600160a01b0384166000818152600260209081526040918290209390935580518581529051919233927fddf252ad1be2c89b69c2b068fc378daa952ba7f163c4a11628f55a4df523b3ef9281900390910190a350600192915050565b80600160d21b65195d1a1d5cd902141562001315576000838152603f602052604090206005018290555b80600160f11b6132b90214156200133b576000838152603f602052604090206005018290555b80600160e91b623b32b902141562001362576000838152603f602052604090206007018290555b6000838152603f6020526040902054600160d81b64697373756502141562001419576000838152603f602052604090206005015415801590620013b557506000838152603f602052604090206007015415155b1562001413576000838152603f6020526040812060028101546003820154600590920154620013e692908662001b2a565b6000858152603f6020526040902060010154909150620014119082906001600160a01b031662001b7e565b505b620014d8565b6000838152603f6020526040902054600160d01b6572656465656d021415620014d8576000838152603f6020526040902060050154158015906200146d57506000838152603f602052604090206007015415155b15620014d8576000838152603f60205260408120600281015460038201546005909201546200149e92908662001bf7565b6000858152603f6020526040902060038101546001820154600290920154929350620014d69284926001600160a01b03169062001c36565b505b505050565b6001600160a01b03918216600090815260036020908152604080832093909416825291909152205490565b6200151262001203565b6200151c57600080fd5b620015278162001d5d565b50565b6000826200153757600080fd5b600080805b306000908152603c6020526040902054811015620015db57306000908152603c6020526040902080546001600160a01b0387169190839081106200157c57fe5b60009182526020909120600290910201546001600160a01b03161415620015d257306000908152603c60205260409020805482908110620015b957fe5b9060005260206000209060020201600101549150600192505b6001016200153c565b50811562001a805780600160d91b6432ba3432b90214156200182557604051620016059062001e6b565b604051809103906000f08015801562001622573d6000803e3d6000fd5b5060408051600160e61b63012b8bff028152600160e31b63086c2e6d02600482015230602482015290516001600160a01b039290921691634ae2ffc0916044808201926020929091908290030181600087803b1580156200168257600080fd5b505af115801562001697573d6000803e3d6000fd5b505050506040513d6020811015620016ae57600080fd5b5051603d55604051620016c19062001e79565b604051809103906000f080158015620016de573d6000803e3d6000fd5b5060395460408051602080820193909352600160aa1b6a17dd1bd7d59a5857d554d102818301528151602b818303018152604b820192839052600160e41b630b2b761302909252600160e91b623b32b902606f820152600160e31b63086c2e6d02608f8201523060af82018190526080604f8301908152835160cf84015283516001600160a01b03969096169563b2b761309592939192839260ef01919086019080838360005b838110156200179f57818101518382015260200162001785565b50505050905090810190601f168015620017cd5780820380516001836020036101000a031916815260200191505b509350505050602060405180830381600087803b158015620017ee57600080fd5b505af115801562001803573d6000803e3d6000fd5b505050506040513d60208110156200181a57600080fd5b5051603e5562001993565b604051620018339062001e79565b604051809103906000f08015801562001850573d6000803e3d6000fd5b5060395460408051602080820193909352600160e01b635f746f5f02818301526044808201869052825180830390910181526064820192839052600160e41b630b2b761302909252600160f11b6132b9026088820152600160e31b63086c2e6d0260a88201523060c88201819052608060688301908152835160e884015283516001600160a01b03969096169563b2b761309592939192839261010801919086019080838360005b8381101562001912578181015183820152602001620018f8565b50505050905090810190601f168015620019405780820380516001836020036101000a031916815260200191505b509350505050602060405180830381600087803b1580156200196157600080fd5b505af115801562001976573d6000803e3d6000fd5b505050506040513d60208110156200198d57600080fd5b5051603e555b6040805161010081018252600160d01b6572656465656d0281526001600160a01b0386811660208084019182528385018a815260608501878152603d5460808701908152600060a0880181815260395460c08a0190815260e08a01838152603e80548552603f9098528b84209a518b5597516001808c0180546001600160a01b03191692909b1691909117909955945160028a0155925160038901559051600488015590516005870155905160068601559151600790940193909355915483549182018455929091527f352feee0eea125f11f791c1b77524172e9bc20f1b719b6cef0fc24f64db8e15e01555b509392505050565b60006200113383836040518060400160405280601e81526020017f536166654d6174683a207375627472616374696f6e206f766572666c6f77000081525062001dcd565b600082820183811015620011335760408051600160e51b62461bcd02815260206004820152601b60248201527f536166654d6174683a206164646974696f6e206f766572666c6f770000000000604482015290519081900360640190fd5b600083600160d91b6432ba3432b902141562001b73576039546012600a870418840290600160ca1b66159a584b5554d1021462001b6b578202905062001b76565b905062001b76565b50805b949350505050565b3060009081526002602052604090205462001ba0908363ffffffff62001acc16565b5062001bad81836200121a565b506001805483019055603954604080519182526020820184905280517f5319b6deb2e88992d6402a51c647e130491c4eb3ec08435578e2a8e75c02b0879281900390910190a15050565b600083600160d91b6432ba3432b902141562001c2c5784820260008460018162001c1d57fe5b0491909102915062001b769050565b5080840262001b76565b60005b306000908152603b602052604090205481101562001d5657306000908152603b6020526040902080548591908390811062001c7057fe5b906000526020600020906002020160000154141562001d4d57306000908152603b6020526040902080548691908390811062001ca857fe5b906000526020600020906002020160010154111562001d4d57306000908152603b6020526040902080548691908390811062001ce057fe5b60009182526020909120600160029092020101805491909103905562001d0783866200121a565b50600180548390039055604080518581526020810184905281517fa80680609f879b406924574f2f65d39f8110940f6fc7e848e869822400e78101929181900390910190a15b60010162001c39565b5050505050565b6001600160a01b03811662001d7157600080fd5b6037546040516001600160a01b038084169216907f8be0079c531659141344cd1fd0a4f28419497f9722a3daafe3b4186f6b6457e090600090a3603780546001600160a01b0319166001600160a01b0392909216919091179055565b6000818484111562001e6357604051600160e51b62461bcd0281526004018080602001828103825283818151815260200191508051906020019080838360005b8381101562001e2757818101518382015260200162001e0d565b50505050905090810190601f16801562001e555780820380516001836020036101000a031916815260200191505b509250505060405180910390fd5b505050900390565b611d478062001e8883390190565b611e3e8062003bcf8339019056fe60806040523480156200001157600080fd5b50620000447f11000000000000000000000000000000000000000000000000000000000000006200004a602090811b901c565b62000770565b6001546001600160a01b031615806200007e57506001546200007c906001600160a01b03166200026b602090811b901c565b155b1562000098576200009660006200026f60201b60201c565b505b600160009054906101000a90046001600160a01b03166001600160a01b03166338cc48316040518163ffffffff1660e01b8152600401602060405180830381600087803b158015620000e957600080fd5b505af1158015620000fe573d6000803e3d6000fd5b505050506040513d60208110156200011557600080fd5b50516000546001600160a01b03908116911614620001cc57600160009054906101000a90046001600160a01b03166001600160a01b03166338cc48316040518163ffffffff1660e01b8152600401602060405180830381600087803b1580156200017e57600080fd5b505af115801562000193573d6000803e3d6000fd5b505050506040513d6020811015620001aa57600080fd5b5051600080546001600160a01b0319166001600160a01b039092169190911790555b60008054604080517f688dcfd70000000000000000000000000000000000000000000000000000000081527fff000000000000000000000000000000000000000000000000000000000000008516600482015290516001600160a01b039092169263688dcfd79260248084019382900301818387803b1580156200024f57600080fd5b505af115801562000264573d6000803e3d6000fd5b5050505050565b3b90565b6000620002816200028760201b60201c565b92915050565b600080620002af731d3b2638a7cc9f2cb3d298a3da7a90b67e5506ed6200026b60201b60201c565b11156200032d57600180546001600160a01b031916731d3b2638a7cc9f2cb3d298a3da7a90b67e5506ed17905560408051808201909152600b81527f6574685f6d61696e6e6574000000000000000000000000000000000000000000602080830191909152620003249190620006b5811b901c565b506001620006b2565b60006200035473c03a2615d5efaf5f49f60b7bb6583eaec212fdf16200026b60201b60201c565b1115620003c957600180546001600160a01b03191673c03a2615d5efaf5f49f60b7bb6583eaec212fdf117905560408051808201909152600c81527f6574685f726f707374656e330000000000000000000000000000000000000000602080830191909152620003249190620006b5811b901c565b6000620003f073b7a07bcf2ba2f2703b24c0691b5278999c59ac7e6200026b60201b60201c565b11156200046557600180546001600160a01b03191673b7a07bcf2ba2f2703b24c0691b5278999c59ac7e17905560408051808201909152600981527f6574685f6b6f76616e0000000000000000000000000000000000000000000000602080830191909152620003249190620006b5811b901c565b60006200048c73146500cfd35b22e4a392fe0adc06de1a1368ed486200026b60201b60201c565b11156200050157600180546001600160a01b03191673146500cfd35b22e4a392fe0adc06de1a1368ed4817905560408051808201909152600b81527f6574685f72696e6b656279000000000000000000000000000000000000000000602080830191909152620003249190620006b5811b901c565b60006200052873a2998efd205fb9d4b4963afb70778d6354ad3a416200026b60201b60201c565b11156200059d57600180546001600160a01b03191673a2998efd205fb9d4b4963afb70778d6354ad3a4117905560408051808201909152600a81527f6574685f676f65726c6900000000000000000000000000000000000000000000602080830191909152620003249190620006b5811b901c565b6000620005c4736f485c8bf6fc43ea212e93bbf8ce046c7f1cb4756200026b60201b60201c565b1115620005f85750600180546001600160a01b031916736f485c8bf6fc43ea212e93bbf8ce046c7f1cb475178155620006b2565b60006200061f7320e12a1f859b3feae5fb2a0a32c18f5a65555bbf6200026b60201b60201c565b1115620006535750600180546001600160a01b0319167320e12a1f859b3feae5fb2a0a32c18f5a65555bbf178155620006b2565b60006200067a7351efaf4c8b3c9afbd5ab9f4bbc82784ab6ef8faa6200026b60201b60201c565b1115620006ae5750600180546001600160a01b0319167351efaf4c8b3c9afbd5ab9f4bbc82784ab6ef8faa178155620006b2565b5060005b90565b8051620006ca906002906020840190620006ce565b5050565b828054600181600116156101000203166002900490600052602060002090601f016020900481019282601f106200071157805160ff191683800117855562000741565b8280016001018555821562000741579182015b828111156200074157825182559160200191906001019062000724565b506200074f92915062000753565b5090565b620006b291905b808211156200074f57600081556001016200075a565b6115c780620007806000396000f3fe60806040526004361061003f5760003560e01c806327dc297e1461004457806338bbfa50146101005780634ae2ffc01461024157806389a2cdcb1461027f575b600080fd5b34801561005057600080fd5b506100fe6004803603604081101561006757600080fd5b8135919081019060408101602082013564010000000081111561008957600080fd5b82018360208201111561009b57600080fd5b803590602001918460018302840111640100000000831117156100bd57600080fd5b91908080601f0160208091040260200160405190810160405280939291908181526020018383808284376000920191909152509295506102cc945050505050565b005b34801561010c57600080fd5b506100fe6004803603606081101561012357600080fd5b8135919081019060408101602082013564010000000081111561014557600080fd5b82018360208201111561015757600080fd5b8035906020019184600183028401116401000000008311171561017957600080fd5b91908080601f01602080910402602001604051908101604052809392919081815260200183838082843760009201919091525092959493602081019350359150506401000000008111156101cc57600080fd5b8201836020820111156101de57600080fd5b8035906020019184600183028401116401000000008311171561020057600080fd5b91908080601f0160208091040260200160405190810160405280939291908181526020018383808284376000920191909152509295506102ec945050505050565b61026d6004803603604081101561025757600080fd5b50803590602001356001600160a01b0316610725565b60408051918252519081900360200190f35b34801561028b57600080fd5b506102a9600480360360208110156102a257600080fd5b5035610891565b604080516001600160a01b03909316835260208301919091528051918290030190f35b6040805160008152602081019091526102e890839083906102ec565b5050565b6102f46108b6565b6001600160a01b0316336001600160a01b03161461031157600080fd5b600083815260056020526040902060010154600160e31b63086c2e6d0214806103545750600083815260056020526040902060010154600160e21b63109bdb9902145b61035d57600080fd5b7feb8ba2f0efa97e3d6a93c341f0dbc4f844e74566a598242680199597b9f787c8826040518080602001828103825283818151815260200191508051906020019080838360005b838110156103bc5781810151838201526020016103a4565b50505050905090810190601f1680156103e95780820380516001836020036101000a031916815260200191505b509250505060405180910390a1600083815260056020526040902060010154600160e31b63086c2e6d02141561058f576000838152600560209081526040808320549051600160e01b631bd95155028152600481018381528651602483015286516001600160a01b0390931694859463c6505f85948a9473__stringutils___________________________94631bd95155948c9491938493604401928601918190849084905b838110156104a8578181015183820152602001610490565b50505050905090810190601f1680156104d55780820380516001836020036101000a031916815260200191505b509250505060206040518083038186803b1580156104f257600080fd5b505af4158015610506573d6000803e3d6000fd5b505050506040513d602081101561051c57600080fd5b50516040805163ffffffff851660e01b815260048101939093526024830191909152600160d21b65195d1a1d5cd902604483015251606480830192600092919082900301818387803b15801561057157600080fd5b505af1158015610585573d6000803e3d6000fd5b5050505050610701565b6000838152600560209081526040808320549051600160e01b631bd95155028152600481018381528651602483015286516001600160a01b0390931694859463c6505f85948a9473__stringutils___________________________94631bd95155948c9491938493604401928601918190849084905b8381101561061e578181015183820152602001610606565b50505050905090810190601f16801561064b5780820380516001836020036101000a031916815260200191505b509250505060206040518083038186803b15801561066857600080fd5b505af415801561067c573d6000803e3d6000fd5b505050506040513d602081101561069257600080fd5b50516040805163ffffffff851660e01b815260048101939093526024830191909152600160d21b65195d1a1d5cd902604483015251606480830192600092919082900301818387803b1580156106e757600080fd5b505af11580156106fb573d6000803e3d6000fd5b50505050505b5050600090815260056020526040812080546001600160a01b031916815560010155565b6000306001600160a01b031631610759604051806040016040528060038152602001600160ea1b6215549302815250610aa0565b11156107af577fc4dc360d0a9c0677a3379ae0a3d81e887f761e65fdf3d7e00859d1bcd3c4738960405180806020018281038252604c8152602001806114ce604c913960600191505060405180910390a161088b565b7fc4dc360d0a9c0677a3379ae0a3d81e887f761e65fdf3d7e00859d1bcd3c4738960405180806020018281038252604281526020018061151a6042913960600191505060405180910390a1600061083c604051806040016040528060038152602001600160ea1b621554930281525060405180606001604052806040815260200161155c60409139610cef565b6040805180820182526001600160a01b038681168252602080830189815260008681526005909252939020915182546001600160a01b03191691161781559051600190910155915061088b9050565b92915050565b600560205260009081526040902080546001909101546001600160a01b039091169082565b6001546000906001600160a01b031615806108e357506001546108e1906001600160a01b03166110b3565b155b156108f4576108f260006110b7565b505b600160009054906101000a90046001600160a01b03166001600160a01b03166338cc48316040518163ffffffff1660e01b8152600401602060405180830381600087803b15801561094457600080fd5b505af1158015610958573d6000803e3d6000fd5b505050506040513d602081101561096e57600080fd5b50516000546001600160a01b03908116911614610a2157600160009054906101000a90046001600160a01b03166001600160a01b03166338cc48316040518163ffffffff1660e01b8152600401602060405180830381600087803b1580156109d557600080fd5b505af11580156109e9573d6000803e3d6000fd5b505050506040513d60208110156109ff57600080fd5b5051600080546001600160a01b0319166001600160a01b039092169190911790555b6000809054906101000a90046001600160a01b03166001600160a01b031663c281d19e6040518163ffffffff1660e01b815260040160206040518083038186803b158015610a6e57600080fd5b505afa158015610a82573d6000803e3d6000fd5b505050506040513d6020811015610a9857600080fd5b505190505b90565b6001546000906001600160a01b03161580610acd5750600154610acb906001600160a01b03166110b3565b155b15610ade57610adc60006110b7565b505b600160009054906101000a90046001600160a01b03166001600160a01b03166338cc48316040518163ffffffff1660e01b8152600401602060405180830381600087803b158015610b2e57600080fd5b505af1158015610b42573d6000803e3d6000fd5b505050506040513d6020811015610b5857600080fd5b50516000546001600160a01b03908116911614610c0b57600160009054906101000a90046001600160a01b03166001600160a01b03166338cc48316040518163ffffffff1660e01b8152600401602060405180830381600087803b158015610bbf57600080fd5b505af1158015610bd3573d6000803e3d6000fd5b505050506040513d6020811015610be957600080fd5b5051600080546001600160a01b0319166001600160a01b039092169190911790555b60008054604051600160e01b63524f38890281526020600482018181528651602484015286516001600160a01b039094169463524f3889948894929384936044019290860191908190849084905b83811015610c71578181015183820152602001610c59565b50505050905090810190601f168015610c9e5780820380516001836020036101000a031916815260200191505b5092505050602060405180830381600087803b158015610cbd57600080fd5b505af1158015610cd1573d6000803e3d6000fd5b505050506040513d6020811015610ce757600080fd5b505192915050565b6001546000906001600160a01b03161580610d1c5750600154610d1a906001600160a01b03166110b3565b155b15610d2d57610d2b60006110b7565b505b600160009054906101000a90046001600160a01b03166001600160a01b03166338cc48316040518163ffffffff1660e01b8152600401602060405180830381600087803b158015610d7d57600080fd5b505af1158015610d91573d6000803e3d6000fd5b505050506040513d6020811015610da757600080fd5b50516000546001600160a01b03908116911614610e5a57600160009054906101000a90046001600160a01b03166001600160a01b03166338cc48316040518163ffffffff1660e01b8152600401602060405180830381600087803b158015610e0e57600080fd5b505af1158015610e22573d6000803e3d6000fd5b505050506040513d6020811015610e3857600080fd5b5051600080546001600160a01b0319166001600160a01b039092169190911790555b60008054604051600160e01b63524f38890281526020600482018181528751602484015287516001600160a01b039094169363524f38899389938392604490920191908501908083838b5b83811015610ebd578181015183820152602001610ea5565b50505050905090810190601f168015610eea5780820380516001836020036101000a031916815260200191505b5092505050602060405180830381600087803b158015610f0957600080fd5b505af1158015610f1d573d6000803e3d6000fd5b505050506040513d6020811015610f3357600080fd5b50519050670de0b6b3a764000062030d403a0201811115610f5857506000905061088b565b60008054604051600160e01b63adf59f99028152600481018381526060602483019081528851606484015288516001600160a01b039094169463adf59f9994879491938b938b9391929091604481019160849091019060208701908083838b5b83811015610fd0578181015183820152602001610fb8565b50505050905090810190601f168015610ffd5780820380516001836020036101000a031916815260200191505b50838103825284518152845160209182019186019080838360005b83811015611030578181015183820152602001611018565b50505050905090810190601f16801561105d5780820380516001836020036101000a031916815260200191505b50955050505050506020604051808303818588803b15801561107e57600080fd5b505af1158015611092573d6000803e3d6000fd5b50505050506040513d60208110156110a957600080fd5b5051949350505050565b3b90565b600061088b6000806110dc731d3b2638a7cc9f2cb3d298a3da7a90b67e5506ed6110b3565b111561113e57600180546001600160a01b031916731d3b2638a7cc9f2cb3d298a3da7a90b67e5506ed17905560408051808201909152600b8152600160aa1b6a195d1a17db585a5b9b995d02602082015261113690611427565b506001610a9d565b600061115d73c03a2615d5efaf5f49f60b7bb6583eaec212fdf16110b3565b11156111c657600180546001600160a01b03191673c03a2615d5efaf5f49f60b7bb6583eaec212fdf117905560408051808201909152600c81527f6574685f726f707374656e330000000000000000000000000000000000000000602082015261113690611427565b60006111e573b7a07bcf2ba2f2703b24c0691b5278999c59ac7e6110b3565b111561123d57600180546001600160a01b03191673b7a07bcf2ba2f2703b24c0691b5278999c59ac7e1790556040805180820190915260098152600160b91b6832ba342fb5b7bb30b702602082015261113690611427565b600061125c73146500cfd35b22e4a392fe0adc06de1a1368ed486110b3565b11156112b657600180546001600160a01b03191673146500cfd35b22e4a392fe0adc06de1a1368ed4817905560408051808201909152600b8152600160a81b6a6574685f72696e6b65627902602082015261113690611427565b60006112d573a2998efd205fb9d4b4963afb70778d6354ad3a416110b3565b111561132e57600180546001600160a01b03191673a2998efd205fb9d4b4963afb70778d6354ad3a4117905560408051808201909152600a8152600160b01b696574685f676f65726c6902602082015261113690611427565b600061134d736f485c8bf6fc43ea212e93bbf8ce046c7f1cb4756110b3565b111561137f5750600180546001600160a01b031916736f485c8bf6fc43ea212e93bbf8ce046c7f1cb475178155610a9d565b600061139e7320e12a1f859b3feae5fb2a0a32c18f5a65555bbf6110b3565b11156113d05750600180546001600160a01b0319167320e12a1f859b3feae5fb2a0a32c18f5a65555bbf178155610a9d565b60006113ef7351efaf4c8b3c9afbd5ab9f4bbc82784ab6ef8faa6110b3565b11156114215750600180546001600160a01b0319167351efaf4c8b3c9afbd5ab9f4bbc82784ab6ef8faa178155610a9d565b50600090565b80516102e8906002906020840190828054600181600116156101000203166002900490600052602060002090601f016020900481019282601f1061147657805160ff19168380011785556114a3565b828001600101855582156114a3579182015b828111156114a3578251825591602001919060010190611488565b506114af9291506114b3565b5090565b610a9d91905b808211156114af57600081556001016114b956fe50726f7661626c6520717565727920776173204e4f542073656e742c20706c656173652061646420736f6d652045544820746f20636f76657220666f7220746865207175657279206665652150726f7661626c65207175657279207761732073656e7420666f72204554482d5553442c207374616e64696e6720627920666f722074686520616e737765722e2e2e6a736f6e2868747470733a2f2f6170692e70726f2e636f696e626173652e636f6d2f70726f64756374732f4554482d5553442f7469636b6572292e7072696365a165627a7a72305820ee36befb70c6e8b964f4d114f9b138e7fe903caccba5b4df194c5c59241ee30e002960806040523480156200001157600080fd5b50620000447f11000000000000000000000000000000000000000000000000000000000000006200004a602090811b901c565b62000770565b6001546001600160a01b031615806200007e57506001546200007c906001600160a01b03166200026b602090811b901c565b155b1562000098576200009660006200026f60201b60201c565b505b600160009054906101000a90046001600160a01b03166001600160a01b03166338cc48316040518163ffffffff1660e01b8152600401602060405180830381600087803b158015620000e957600080fd5b505af1158015620000fe573d6000803e3d6000fd5b505050506040513d60208110156200011557600080fd5b50516000546001600160a01b03908116911614620001cc57600160009054906101000a90046001600160a01b03166001600160a01b03166338cc48316040518163ffffffff1660e01b8152600401602060405180830381600087803b1580156200017e57600080fd5b505af115801562000193573d6000803e3d6000fd5b505050506040513d6020811015620001aa57600080fd5b5051600080546001600160a01b0319166001600160a01b039092169190911790555b60008054604080517f688dcfd70000000000000000000000000000000000000000000000000000000081527fff000000000000000000000000000000000000000000000000000000000000008516600482015290516001600160a01b039092169263688dcfd79260248084019382900301818387803b1580156200024f57600080fd5b505af115801562000264573d6000803e3d6000fd5b5050505050565b3b90565b6000620002816200028760201b60201c565b92915050565b600080620002af731d3b2638a7cc9f2cb3d298a3da7a90b67e5506ed6200026b60201b60201c565b11156200032d57600180546001600160a01b031916731d3b2638a7cc9f2cb3d298a3da7a90b67e5506ed17905560408051808201909152600b81527f6574685f6d61696e6e6574000000000000000000000000000000000000000000602080830191909152620003249190620006b5811b901c565b506001620006b2565b60006200035473c03a2615d5efaf5f49f60b7bb6583eaec212fdf16200026b60201b60201c565b1115620003c957600180546001600160a01b03191673c03a2615d5efaf5f49f60b7bb6583eaec212fdf117905560408051808201909152600c81527f6574685f726f707374656e330000000000000000000000000000000000000000602080830191909152620003249190620006b5811b901c565b6000620003f073b7a07bcf2ba2f2703b24c0691b5278999c59ac7e6200026b60201b60201c565b11156200046557600180546001600160a01b03191673b7a07bcf2ba2f2703b24c0691b5278999c59ac7e17905560408051808201909152600981527f6574685f6b6f76616e0000000000000000000000000000000000000000000000602080830191909152620003249190620006b5811b901c565b60006200048c73146500cfd35b22e4a392fe0adc06de1a1368ed486200026b60201b60201c565b11156200050157600180546001600160a01b03191673146500cfd35b22e4a392fe0adc06de1a1368ed4817905560408051808201909152600b81527f6574685f72696e6b656279000000000000000000000000000000000000000000602080830191909152620003249190620006b5811b901c565b60006200052873a2998efd205fb9d4b4963afb70778d6354ad3a416200026b60201b60201c565b11156200059d57600180546001600160a01b03191673a2998efd205fb9d4b4963afb70778d6354ad3a4117905560408051808201909152600a81527f6574685f676f65726c6900000000000000000000000000000000000000000000602080830191909152620003249190620006b5811b901c565b6000620005c4736f485c8bf6fc43ea212e93bbf8ce046c7f1cb4756200026b60201b60201c565b1115620005f85750600180546001600160a01b031916736f485c8bf6fc43ea212e93bbf8ce046c7f1cb475178155620006b2565b60006200061f7320e12a1f859b3feae5fb2a0a32c18f5a65555bbf6200026b60201b60201c565b1115620006535750600180546001600160a01b0319167320e12a1f859b3feae5fb2a0a32c18f5a65555bbf178155620006b2565b60006200067a7351efaf4c8b3c9afbd5ab9f4bbc82784ab6ef8faa6200026b60201b60201c565b1115620006ae5750600180546001600160a01b0319167351efaf4c8b3c9afbd5ab9f4bbc82784ab6ef8faa178155620006b2565b5060005b90565b8051620006ca906002906020840190620006ce565b5050565b828054600181600116156101000203166002900490600052602060002090601f016020900481019282601f106200071157805160ff191683800117855562000741565b8280016001018555821562000741579182015b828111156200074157825182559160200191906001019062000724565b506200074f92915062000753565b5090565b620006b291905b808211156200074f57600081556001016200075a565b6116be80620007806000396000f3fe60806040526004361061003f5760003560e01c806327dc297e1461004457806338bbfa50146100fe57806389a2cdcb1461023b578063b2b761301461028d575b600080fd5b34801561005057600080fd5b506100fc6004803603604081101561006757600080fd5b81359190810190604081016020820135600160201b81111561008857600080fd5b82018360208201111561009a57600080fd5b803590602001918460018302840111600160201b831117156100bb57600080fd5b91908080601f016020809104026020016040519081016040528093929190818152602001838380828437600092019190915250929550610357945050505050565b005b34801561010a57600080fd5b506100fc6004803603606081101561012157600080fd5b81359190810190604081016020820135600160201b81111561014257600080fd5b82018360208201111561015457600080fd5b803590602001918460018302840111600160201b8311171561017557600080fd5b91908080601f0160208091040260200160405190810160405280939291908181526020018383808284376000920191909152509295949360208101935035915050600160201b8111156101c757600080fd5b8201836020820111156101d957600080fd5b803590602001918460018302840111600160201b831117156101fa57600080fd5b91908080601f016020809104026020016040519081016040528093929190818152602001838380828437600092019190915250929550610377945050505050565b34801561024757600080fd5b506102656004803603602081101561025e57600080fd5b50356107bd565b604080516001600160a01b039094168452602084019290925282820152519081900360600190f35b610345600480360360808110156102a357600080fd5b810190602081018135600160201b8111156102bd57600080fd5b8201836020820111156102cf57600080fd5b803590602001918460018302840111600160201b831117156102f057600080fd5b91908080601f01602080910402602001604051908101604052809392919081815260200183838082843760009201919091525092955050823593505050602081013590604001356001600160a01b03166107e8565b60408051918252519081900360200190f35b6040805160008152602081019091526103739083908390610377565b5050565b61037f6109e9565b6001600160a01b0316336001600160a01b03161461039c57600080fd5b600083815260056020526040902060010154600160e31b63086c2e6d0214806103df5750600083815260056020526040902060010154600160e21b63109bdb9902145b6103e857600080fd5b7fa25f2099919c7f026f9326edd9b612739f6ef899978c6aa38ba12db0b7830cf7826040518080602001828103825283818151815260200191508051906020019080838360005b8381101561044757818101518382015260200161042f565b50505050905090810190601f1680156104745780820380516001836020036101000a031916815260200191505b509250505060405180910390a1600083815260056020526040902060010154600160e31b63086c2e6d02141561061d576000838152600560209081526040808320549051600160e01b631bd95155028152600481018381528651602483015286516001600160a01b0390931694859463c6505f85948a9473__stringutils___________________________94631bd95155948c9491938493604401928601918190849084905b8381101561053357818101518382015260200161051b565b50505050905090810190601f1680156105605780820380516001836020036101000a031916815260200191505b509250505060206040518083038186803b15801561057d57600080fd5b505af4158015610591573d6000803e3d6000fd5b505050506040513d60208110156105a757600080fd5b505160008881526005602052604080822060020154815163ffffffff871660e01b8152600481019590955260248501939093526044840192909252905160648084019382900301818387803b1580156105ff57600080fd5b505af1158015610613573d6000803e3d6000fd5b5050505050610792565b6000838152600560209081526040808320549051600160e01b631bd95155028152600481018381528651602483015286516001600160a01b0390931694859463c6505f85948a9473__stringutils___________________________94631bd95155948c9491938493604401928601918190849084905b838110156106ac578181015183820152602001610694565b50505050905090810190601f1680156106d95780820380516001836020036101000a031916815260200191505b509250505060206040518083038186803b1580156106f657600080fd5b505af415801561070a573d6000803e3d6000fd5b505050506040513d602081101561072057600080fd5b505160008881526005602052604080822060020154815163ffffffff871660e01b8152600481019590955260248501939093526044840192909252905160648084019382900301818387803b15801561077857600080fd5b505af115801561078c573d6000803e3d6000fd5b50505050505b5050600090815260056020526040812080546001600160a01b03191681556001810182905560020155565b6005602052600090815260409020805460018201546002909201546001600160a01b03909116919083565b6000306001600160a01b03163161081c604051806040016040528060038152602001600160ea1b6215549302815250610bd3565b1115610872577fc4dc360d0a9c0677a3379ae0a3d81e887f761e65fdf3d7e00859d1bcd3c4738960405180806020018281038252604c815260200180611603604c913960600191505060405180910390a16109e1565b7fc4dc360d0a9c0677a3379ae0a3d81e887f761e65fdf3d7e00859d1bcd3c4738960405180806020018281038252604481526020018061164f6044913960600191505060405180910390a183600160f11b6132b902141561097f57600061091f604051806040016040528060038152602001600160ea1b62155493028152506040518060400160405280600d8152602001600160981b6c6f7261636c6575726c6865726502815250610e22565b604080516060810182526001600160a01b03868116825260208083018981528385018b81526000878152600590935294909120925183546001600160a01b0319169216919091178255516001820155905160029091015591506109e19050565b83600160f11b6134b90214156109e157600061091f604051806040016040528060038152602001600160ea1b62155493028152506040518060400160405280600d8152602001600160981b6c6f7261636c6575726c6865726502815250610e22565b949350505050565b6001546000906001600160a01b03161580610a165750600154610a14906001600160a01b03166111e8565b155b15610a2757610a2560006111ec565b505b600160009054906101000a90046001600160a01b03166001600160a01b03166338cc48316040518163ffffffff1660e01b8152600401602060405180830381600087803b158015610a7757600080fd5b505af1158015610a8b573d6000803e3d6000fd5b505050506040513d6020811015610aa157600080fd5b50516000546001600160a01b03908116911614610b5457600160009054906101000a90046001600160a01b03166001600160a01b03166338cc48316040518163ffffffff1660e01b8152600401602060405180830381600087803b158015610b0857600080fd5b505af1158015610b1c573d6000803e3d6000fd5b505050506040513d6020811015610b3257600080fd5b5051600080546001600160a01b0319166001600160a01b039092169190911790555b6000809054906101000a90046001600160a01b03166001600160a01b031663c281d19e6040518163ffffffff1660e01b815260040160206040518083038186803b158015610ba157600080fd5b505afa158015610bb5573d6000803e3d6000fd5b505050506040513d6020811015610bcb57600080fd5b505190505b90565b6001546000906001600160a01b03161580610c005750600154610bfe906001600160a01b03166111e8565b155b15610c1157610c0f60006111ec565b505b600160009054906101000a90046001600160a01b03166001600160a01b03166338cc48316040518163ffffffff1660e01b8152600401602060405180830381600087803b158015610c6157600080fd5b505af1158015610c75573d6000803e3d6000fd5b505050506040513d6020811015610c8b57600080fd5b50516000546001600160a01b03908116911614610d3e57600160009054906101000a90046001600160a01b03166001600160a01b03166338cc48316040518163ffffffff1660e01b8152600401602060405180830381600087803b158015610cf257600080fd5b505af1158015610d06573d6000803e3d6000fd5b505050506040513d6020811015610d1c57600080fd5b5051600080546001600160a01b0319166001600160a01b039092169190911790555b60008054604051600160e01b63524f38890281526020600482018181528651602484015286516001600160a01b039094169463524f3889948894929384936044019290860191908190849084905b83811015610da4578181015183820152602001610d8c565b50505050905090810190601f168015610dd15780820380516001836020036101000a031916815260200191505b5092505050602060405180830381600087803b158015610df057600080fd5b505af1158015610e04573d6000803e3d6000fd5b505050506040513d6020811015610e1a57600080fd5b505192915050565b6001546000906001600160a01b03161580610e4f5750600154610e4d906001600160a01b03166111e8565b155b15610e6057610e5e60006111ec565b505b600160009054906101000a90046001600160a01b03166001600160a01b03166338cc48316040518163ffffffff1660e01b8152600401602060405180830381600087803b158015610eb057600080fd5b505af1158015610ec4573d6000803e3d6000fd5b505050506040513d6020811015610eda57600080fd5b50516000546001600160a01b03908116911614610f8d57600160009054906101000a90046001600160a01b03166001600160a01b03166338cc48316040518163ffffffff1660e01b8152600401602060405180830381600087803b158015610f4157600080fd5b505af1158015610f55573d6000803e3d6000fd5b505050506040513d6020811015610f6b57600080fd5b5051600080546001600160a01b0319166001600160a01b039092169190911790555b60008054604051600160e01b63524f38890281526020600482018181528751602484015287516001600160a01b039094169363524f38899389938392604490920191908501908083838b5b83811015610ff0578181015183820152602001610fd8565b50505050905090810190601f16801561101d5780820380516001836020036101000a031916815260200191505b5092505050602060405180830381600087803b15801561103c57600080fd5b505af1158015611050573d6000803e3d6000fd5b505050506040513d602081101561106657600080fd5b50519050670de0b6b3a764000062030d403a020181111561108b5750600090506111e2565b60008054604051600160e01b63adf59f99028152600481018381526060602483019081528851606484015288516001600160a01b039094169463adf59f9994879491938b938b9391929091604481019160849091019060208701908083838b5b838110156111035781810151838201526020016110eb565b50505050905090810190601f1680156111305780820380516001836020036101000a031916815260200191505b50838103825284518152845160209182019186019080838360005b8381101561116357818101518382015260200161114b565b50505050905090810190601f1680156111905780820380516001836020036101000a031916815260200191505b50955050505050506020604051808303818588803b1580156111b157600080fd5b505af11580156111c5573d6000803e3d6000fd5b50505050506040513d60208110156111dc57600080fd5b50519150505b92915050565b3b90565b60006111e2600080611211731d3b2638a7cc9f2cb3d298a3da7a90b67e5506ed6111e8565b111561127357600180546001600160a01b031916731d3b2638a7cc9f2cb3d298a3da7a90b67e5506ed17905560408051808201909152600b8152600160aa1b6a195d1a17db585a5b9b995d02602082015261126b9061155c565b506001610bd0565b600061129273c03a2615d5efaf5f49f60b7bb6583eaec212fdf16111e8565b11156112fb57600180546001600160a01b03191673c03a2615d5efaf5f49f60b7bb6583eaec212fdf117905560408051808201909152600c81527f6574685f726f707374656e330000000000000000000000000000000000000000602082015261126b9061155c565b600061131a73b7a07bcf2ba2f2703b24c0691b5278999c59ac7e6111e8565b111561137257600180546001600160a01b03191673b7a07bcf2ba2f2703b24c0691b5278999c59ac7e1790556040805180820190915260098152600160b91b6832ba342fb5b7bb30b702602082015261126b9061155c565b600061139173146500cfd35b22e4a392fe0adc06de1a1368ed486111e8565b11156113eb57600180546001600160a01b03191673146500cfd35b22e4a392fe0adc06de1a1368ed4817905560408051808201909152600b8152600160a81b6a6574685f72696e6b65627902602082015261126b9061155c565b600061140a73a2998efd205fb9d4b4963afb70778d6354ad3a416111e8565b111561146357600180546001600160a01b03191673a2998efd205fb9d4b4963afb70778d6354ad3a4117905560408051808201909152600a8152600160b01b696574685f676f65726c6902602082015261126b9061155c565b6000611482736f485c8bf6fc43ea212e93bbf8ce046c7f1cb4756111e8565b11156114b45750600180546001600160a01b031916736f485c8bf6fc43ea212e93bbf8ce046c7f1cb475178155610bd0565b60006114d37320e12a1f859b3feae5fb2a0a32c18f5a65555bbf6111e8565b11156115055750600180546001600160a01b0319167320e12a1f859b3feae5fb2a0a32c18f5a65555bbf178155610bd0565b60006115247351efaf4c8b3c9afbd5ab9f4bbc82784ab6ef8faa6111e8565b11156115565750600180546001600160a01b0319167351efaf4c8b3c9afbd5ab9f4bbc82784ab6ef8faa178155610bd0565b50600090565b8051610373906002906020840190828054600181600116156101000203166002900490600052602060002090601f016020900481019282601f106115ab57805160ff19168380011785556115d8565b828001600101855582156115d8579182015b828111156115d85782518255916020019190600101906115bd565b506115e49291506115e8565b5090565b610bd091905b808211156115e457600081556001016115ee56fe50726f7661626c6520717565727920776173204e4f542073656e742c20706c656173652061646420736f6d652045544820746f20636f76657220666f7220746865207175657279206665652150726f7661626c65207175657279207761732073656e7420666f72205669612072617465732c207374616e64696e6720627920666f722074686520616e737765722e2e2ea165627a7a72305820a5bf1400bf6989034542c63e3b871ed3818663abdbd4ac8a533dfb2a86b110970029a165627a7a723058201232f3f1653fcca3fb9ee7d185d04fc50429b6d0cc713d4d85cdf0ee11bb54ce0029",
  "source": "// (c) Kallol Borah, 2020\n// Implementation of the Via cash token.\n\npragma solidity >=0.5.0 <0.7.0;\n\nimport \"./erc/ERC20.sol\";\nimport \"./oraclize/ViaRate.sol\";\nimport \"./oraclize/EthToUSD.sol\";\nimport \"./utilities/StringUtils.sol\";\nimport \"./Factory.sol\";\nimport \"@openzeppelin/upgrades/contracts/Initializable.sol\";\nimport \"@openzeppelin/upgrades/contracts/ownership/Ownable.sol\";\n\ncontract Cash is ERC20, Initializable, OpenZeppelinUpgradesOwnable {\n\n    using stringutils for *;\n\n    //via token factory address\n    Factory factory;\n\n    //name of Via token (eg, Via-USD)\n    bytes32 public name;\n    bytes32 public symbol;\n\n    struct cash{\n        bytes32 name;\n        uint256 balance;\n    }\n\n    //cash balances held by this issuer against which via cash tokens are issued\n    mapping(address => cash[]) private cashbalances;\n\n    struct depositor{\n        address name;\n        bytes32 currency;\n    }\n\n    //list of depositors via is issued to\n    mapping(address => depositor[]) private depositors;\n\n    //for Oraclize\n    bytes32 EthXid;\n    bytes32 ViaXid;\n    \n    struct conversion{\n        bytes32 operation;\n        address party;\n        uint256 amount;\n        bytes32 currency;\n        bytes32 EthXid;\n        uint256 EthXvalue;\n        bytes32 name;\n        uint256 ViaXvalue;\n    }\n\n    mapping(bytes32 => conversion) private conversionQ;\n\n    bytes32[] private conversions;\n\n    //events to capture and report to Via oracle\n    event ViaCashIssued(bytes32 currency, uint256 value);\n    event ViaCashRedeemed(bytes32 currency, uint256 value);\n\n    //initiliaze proxies\n    function initialize(bytes32 _name, address _owner) public {\n        //OpenZeppelinUpgradesOwnable.initialize(_owner);\n        factory = Factory(_owner);\n        name = _name;\n        symbol = _name;\n    }\n\n    //handling pay in of ether for issue of via cash tokens\n    function() payable external {\n        //ether paid in\n        require(msg.value !=0);\n        //issue via cash tokens\n        issue(msg.value, msg.sender, \"ether\");\n    }\n\n    //overriding this function of ERC20 standard\n    function transferFrom(address sender, address receiver, uint256 tokens) public returns (bool){\n        //owner should have more tokens than being transferred\n        require(tokens <= balances[sender]);\n        //sending contract should be allowed by token owner to make this transfer\n        require(tokens <= allowed[sender][msg.sender]);\n        //check if tokens are being transferred to this cash contract\n        if(receiver == address(this)){ \n            //if token name is the same, this transfer has to be redeemed\n            if(Cash(address(msg.sender)).name()==name){ \n                if(redeem(tokens, receiver))\n                    return true;\n                else\n                    return false;\n            }\n            //else request issue of cash tokens generated by this contract\n            else{\n                //only issue if cash tokens are paid in, since bond tokens can't be paid to issue bond token\n                for(uint256 p=0; p<factory.getTokenCount(); p++){\n                    address viaAddress = factory.tokens(p);\n                    if(factory.getName(viaAddress) == Cash(address(msg.sender)).name() &&\n                        factory.getType(viaAddress) != \"ViaBond\"){\n                        issue(tokens, receiver, Cash(address(msg.sender)).name());\n                        return true;\n                    }\n                }\n                return false;\n            }\n        }\n        else {\n            //tokens are being sent to a user account\n            balances[sender] = balances[sender].sub(tokens);\n            allowed[sender][msg.sender] = allowed[sender][msg.sender].sub(tokens);\n            balances[receiver] = balances[receiver].add(tokens);\n            emit Transfer(sender, receiver, tokens);\n            return true;\n        }\n    }\n    \n    //requesting issue of Via to buyer for amount of ether or some other via cash token\n    function issue(uint256 amount, address buyer, bytes32 currency) private {\n        //ensure that brought amount is not zero\n        require(amount != 0);\n        bool found = false;\n        uint256 p=0;\n        //adds paid in currency to this contract's cash balance\n        for(p=0; p<cashbalances[address(this)].length; p++){\n            if(cashbalances[address(this)][p].name == currency){\n                cashbalances[address(this)][p].balance += amount;\n                found = true;\n            }\n        }\n        if(!found){\n            cashbalances[address(this)][p].name = currency;\n            cashbalances[address(this)][p].balance = amount;\n        }\n        found = false;\n        //add depositor to list of depositors\n        for(p=0; p<depositors[address(this)].length; p++){\n            if(depositors[address(this)][p].name == buyer &&\n                depositors[address(this)][p].currency == currency){\n                found = true;\n            }\n        }\n        if(!found){\n            depositors[address(this)][p].name = buyer;\n            depositors[address(this)][p].currency = currency;\n        }\n        //find amount of via cash tokens to transfer after applying exchange rate\n        if(currency==\"ether\"){\n            EthXid = new EthToUSD().update(\"Cash\", address(this));\n            if(name!=\"Via-USD\"){\n                ViaXid = new ViaRate().requestPost(abi.encodePacked(\"Via_USD_to_\", name),\"ver\",\"Cash\", address(this));\n            }\n        }\n        else{\n            ViaXid = new ViaRate().requestPost(abi.encodePacked(currency, \"_to_\", name),\"er\",\"Cash\", address(this));\n        }\n        conversionQ[ViaXid] = conversion(\"issue\", buyer, amount, currency, EthXid, 0, name, 0);\n        conversions.push(ViaXid);\n    }\n\n    //requesting redemption of Via cash token and transfer of currency it was issued against\n    function redeem(uint256 amount, address seller) private returns(bool){\n        //ensure that sold amount is not zero\n        require(amount != 0);\n        //find currency that seller had deposited earlier\n        bool found = false;\n        bytes32 currency;\n        for(uint256 p=0; p<depositors[address(this)].length; p++){\n            if(depositors[address(this)][p].name == seller){\n                currency = depositors[address(this)][p].currency;\n                found = true;\n            }\n        }\n        if(found){\n            //call Via oracle\n            if(currency==\"ether\"){\n                EthXid = new EthToUSD().update(\"Cash\", address(this));\n                ViaXid = new ViaRate().requestPost(abi.encodePacked(name, \"_to_Via_USD\"),\"ver\",\"Cash\", address(this));\n            }\n            else{\n                ViaXid = new ViaRate().requestPost(abi.encodePacked(name, \"_to_\", currency),\"er\",\"Cash\", address(this));\n            }\n            conversionQ[ViaXid] = conversion(\"redeem\", seller, amount, currency, EthXid, 0, name, 0);\n            conversions.push(ViaXid);\n        }\n        return found;\n    }\n\n    //function called back from Oraclize\n    function convert(bytes32 txId, uint256 result, bytes32 rtype) public {\n        //check type of result returned\n        if(rtype ==\"ethusd\"){\n            conversionQ[txId].EthXvalue = result;\n        }\n        if(rtype == \"er\"){\n            conversionQ[txId].EthXvalue = result;\n        }\n        if(rtype == \"ver\"){\n            conversionQ[txId].ViaXvalue = result;\n        }\n        //check if bond needs to be issued or redeemed\n        if(conversionQ[txId].operation==\"issue\"){\n            if(conversionQ[txId].EthXvalue!=0 && conversionQ[txId].ViaXvalue!=0){\n                uint256 via = convertToVia(conversionQ[txId].amount, conversionQ[txId].currency,conversionQ[txId].EthXvalue,result);\n                finallyIssue(via, conversionQ[txId].party);\n            }\n        }\n        else if(conversionQ[txId].operation==\"redeem\"){\n            if(conversionQ[txId].EthXvalue!=0 && conversionQ[txId].ViaXvalue!=0){\n                uint256 value = convertFromVia(conversionQ[txId].amount, conversionQ[txId].currency,conversionQ[txId].EthXvalue,result);\n                finallyRedeem(value, conversionQ[txId].currency, conversionQ[txId].party, conversionQ[txId].amount);\n            }\n        }\n    }\n\n    function finallyIssue(uint256 via, address party) private {\n        //add via to this contract's balance first (aka issue them first)\n        balances[address(this)].add(via);\n        //transfer amount to buyer \n        transfer(party, via);\n        //adjust total supply\n        totalSupply_ += via;\n        //generate event\n        emit ViaCashIssued(name, via);\n    }\n\n    function finallyRedeem(uint256 value, bytes32 currency, address party, uint256 amount) private {\n        //only if the issuer's balance of the deposited currency is more than or equal to amount redeemed\n        for(uint256 p=0; p<cashbalances[address(this)].length; p++){\n            //check if currency in which redemption is to be done is available in cash balances\n            if(cashbalances[address(this)][p].name == currency){\n                //check if currency in which redemption is to be done has sufficient balance\n                if(cashbalances[address(this)][p].balance > value){\n                    //deduct amount to be transferred from cash balance\n                    cashbalances[address(this)][p].balance -= value;\n                    //transfer amount from issuer/sender to seller \n                    transfer(party, value);\n                    //adjust total supply\n                    totalSupply_ -= amount;\n                    //generate event\n                    emit ViaCashRedeemed(currency, amount);\n                }\n            }\n        }\n    }\n    \n    //get Via exchange rates from oracle and convert given currency and amount to via cash token\n    function convertToVia(uint256 amount, bytes32 currency, uint256 ethusd, uint256 viarate) private returns(uint256){\n        if(currency==\"ether\"){\n            //to first convert amount of ether passed to this function to USD\n            uint256 amountInUSD = (amount/10^18)*ethusd;\n            //to then convert USD to Via-currency if currency of this contract is not USD itself \n            if(name!=\"Via-USD\"){\n                uint256 inVia = amountInUSD * viarate;\n                return inVia;\n            }\n            else{\n                return amountInUSD;\n            }\n        }\n        //if currency paid in another via currency\n        else{\n            uint256 inVia = viarate;\n            return inVia;\n        }\n    }\n\n    //convert Via-currency (eg, Via-EUR, Via-INR, Via-USD) to Ether or another Via currency\n    function convertFromVia(uint256 amount, bytes32 currency, uint256 ethusd, uint256 viarate) private returns(uint256){\n        //if currency to convert from is ether\n        if(currency==\"ether\"){\n            uint256 amountInViaUSD = amount * viarate;\n            uint256 inEth = amountInViaUSD * (1/ethusd);\n            return inEth;\n        }\n        //else convert to another via currency\n        else{\n            return(viarate*amount);\n        }\n    }\n\n}\n",
  "sourcePath": "/Users/hsiang/Desktop/via-issuer-test-master/contracts/Cash.sol",
  "compiler": {
    "name": "solc",
    "version": "0.5.7+commit.6da8b019.Emscripten.clang"
  },
  "schemaVersion": "3.2.2",
  "updatedAt": "2020-07-22T09:12:51.024Z",
  "networkType": "ethereum",
  "devdoc": {
    "methods": {
      "isOwner()": {
        "return": "true if `msg.sender` is the owner of the contract."
      },
      "owner()": {
        "return": "the address of the owner."
      },
      "renounceOwnership()": {
        "details": "Allows the current owner to relinquish control of the contract."
      },
      "transferOwnership(address)": {
        "details": "Allows the current owner to transfer control of the contract to a newOwner.",
        "params": {
          "newOwner": "The address to transfer ownership to."
        }
      }
    }
  },
  "userdoc": {
    "methods": {
      "renounceOwnership()": {
        "notice": "Renouncing to ownership will leave the contract without an owner. It will not be possible to call the functions with the `onlyOwner` modifier anymore."
      }
    }
  }
}