{
  "contractName": "ERC20",
  "abi": [
    {
      "constant": true,
      "inputs": [],
      "name": "issuer",
      "outputs": [
        {
          "name": "",
          "type": "address"
        }
      ],
      "payable": false,
      "stateMutability": "view",
      "type": "function"
    },
    {
      "constant": true,
      "inputs": [
        {
          "name": "",
          "type": "address"
        }
      ],
      "name": "balances",
      "outputs": [
        {
          "name": "",
          "type": "uint256"
        }
      ],
      "payable": false,
      "stateMutability": "view",
      "type": "function"
    },
    {
      "constant": true,
      "inputs": [],
      "name": "decimals",
      "outputs": [
        {
          "name": "",
          "type": "uint8"
        }
      ],
      "payable": false,
      "stateMutability": "view",
      "type": "function"
    },
    {
      "anonymous": false,
      "inputs": [
        {
          "indexed": true,
          "name": "tokenOwner",
          "type": "address"
        },
        {
          "indexed": true,
          "name": "spender",
          "type": "address"
        },
        {
          "indexed": false,
          "name": "tokens",
          "type": "uint256"
        }
      ],
      "name": "Approval",
      "type": "event"
    },
    {
      "anonymous": false,
      "inputs": [
        {
          "indexed": true,
          "name": "from",
          "type": "address"
        },
        {
          "indexed": true,
          "name": "to",
          "type": "address"
        },
        {
          "indexed": false,
          "name": "tokens",
          "type": "uint256"
        }
      ],
      "name": "Transfer",
      "type": "event"
    },
    {
      "constant": true,
      "inputs": [],
      "name": "totalSupply",
      "outputs": [
        {
          "name": "",
          "type": "uint256"
        }
      ],
      "payable": false,
      "stateMutability": "view",
      "type": "function"
    },
    {
      "constant": true,
      "inputs": [
        {
          "name": "tokenOwner",
          "type": "address"
        }
      ],
      "name": "balanceOf",
      "outputs": [
        {
          "name": "",
          "type": "uint256"
        }
      ],
      "payable": false,
      "stateMutability": "view",
      "type": "function"
    },
    {
      "constant": false,
      "inputs": [
        {
          "name": "receiver",
          "type": "address"
        },
        {
          "name": "tokens",
          "type": "uint256"
        }
      ],
      "name": "transfer",
      "outputs": [
        {
          "name": "",
          "type": "bool"
        }
      ],
      "payable": false,
      "stateMutability": "nonpayable",
      "type": "function"
    },
    {
      "constant": false,
      "inputs": [
        {
          "name": "spender",
          "type": "address"
        },
        {
          "name": "tokens",
          "type": "uint256"
        }
      ],
      "name": "approve",
      "outputs": [
        {
          "name": "",
          "type": "bool"
        }
      ],
      "payable": false,
      "stateMutability": "nonpayable",
      "type": "function"
    },
    {
      "constant": true,
      "inputs": [
        {
          "name": "tokenOwner",
          "type": "address"
        },
        {
          "name": "spender",
          "type": "address"
        }
      ],
      "name": "allowance",
      "outputs": [
        {
          "name": "",
          "type": "uint256"
        }
      ],
      "payable": false,
      "stateMutability": "view",
      "type": "function"
    },
    {
      "constant": false,
      "inputs": [
        {
          "name": "owner",
          "type": "address"
        },
        {
          "name": "buyer",
          "type": "address"
        },
        {
          "name": "tokens",
          "type": "uint256"
        }
      ],
      "name": "transferFrom",
      "outputs": [
        {
          "name": "",
          "type": "bool"
        }
      ],
      "payable": false,
      "stateMutability": "nonpayable",
      "type": "function"
    }
  ],
  "bytecode": "0x608060405234801561001057600080fd5b50610680806100206000396000f3fe608060405234801561001057600080fd5b50600436106100935760003560e01c806327e235e31161006657806327e235e31461014c578063313ce5671461017257806370a0823114610190578063a9059cbb146101b6578063dd62ed3e146101e257610093565b8063095ea7b31461009857806318160ddd146100d85780631d143848146100f257806323b872dd14610116575b600080fd5b6100c4600480360360408110156100ae57600080fd5b506001600160a01b038135169060200135610210565b604080519115158252519081900360200190f35b6100e0610276565b60408051918252519081900360200190f35b6100fa61027c565b604080516001600160a01b039092168252519081900360200190f35b6100c46004803603606081101561012c57600080fd5b506001600160a01b0381358116916020810135909116906040013561028b565b6100e06004803603602081101561016257600080fd5b50356001600160a01b03166103eb565b61017a6103fd565b6040805160ff9092168252519081900360200190f35b6100e0600480360360208110156101a657600080fd5b50356001600160a01b0316610402565b6100c4600480360360408110156101cc57600080fd5b506001600160a01b03813516906020013561041d565b6100e0600480360360408110156101f857600080fd5b506001600160a01b03813581169160200135166104e9565b3360008181526003602090815260408083206001600160a01b038716808552908352818420869055815186815291519394909390927f8c5be1e5ebec7d5bd14f71427d1e84f3dd0314c0f7b2291e5b200ac8c7c3b925928290030190a350600192915050565b60015490565b6000546001600160a01b031681565b6001600160a01b0383166000908152600260205260408120548211156102b057600080fd5b6001600160a01b03841660009081526003602090815260408083203384529091529020548211156102e057600080fd5b6001600160a01b038416600090815260026020526040902054610309908363ffffffff61051416565b6001600160a01b0385166000908152600260209081526040808320939093556003815282822033835290522054610346908363ffffffff61051416565b6001600160a01b03808616600090815260036020908152604080832033845282528083209490945591861681526002909152205461038a908363ffffffff61055d16565b6001600160a01b0380851660008181526002602090815260409182902094909455805186815290519193928816927fddf252ad1be2c89b69c2b068fc378daa952ba7f163c4a11628f55a4df523b3ef92918290030190a35060019392505050565b60026020526000908152604090205481565b600281565b6001600160a01b031660009081526002602052604090205490565b3360009081526002602052604081205482111561043957600080fd5b33600090815260026020526040902054610459908363ffffffff61051416565b33600090815260026020526040808220929092556001600160a01b0385168152205461048b908363ffffffff61055d16565b6001600160a01b0384166000818152600260209081526040918290209390935580518581529051919233927fddf252ad1be2c89b69c2b068fc378daa952ba7f163c4a11628f55a4df523b3ef9281900390910190a350600192915050565b6001600160a01b03918216600090815260036020908152604080832093909416825291909152205490565b600061055683836040518060400160405280601e81526020017f536166654d6174683a207375627472616374696f6e206f766572666c6f7700008152506105ba565b9392505050565b6000828201838110156105565760408051600160e51b62461bcd02815260206004820152601b60248201527f536166654d6174683a206164646974696f6e206f766572666c6f770000000000604482015290519081900360640190fd5b6000818484111561064c57604051600160e51b62461bcd0281526004018080602001828103825283818151815260200191508051906020019080838360005b838110156106115781810151838201526020016105f9565b50505050905090810190601f16801561063e5780820380516001836020036101000a031916815260200191505b509250505060405180910390fd5b50505090039056fea165627a7a723058201e1e05728bcd4dbeae11be869ecf6e5035989265945cd71fe25ef1cae2dab7ee0029",
  "source": "// (c) Kallol Borah, 2020\n// Base ERC20 implementation.\n\npragma solidity >=0.5.0 <0.7.0;\n\nimport \"../utilities/SafeMath.sol\";\n\ncontract ERC20{\n\n    using SafeMath for uint256;\n\n    //address of the issuer of the Via, set once, never reset again\n    address public issuer;\n\n    //allowing 2-floating points for Via tokens\n    uint8 public constant decimals = 2;\n\n    //variables\n    uint256 totalSupply_;\n\n    //Via balances held by this address\n    mapping(address => uint256) public balances;\n    //Delegates allowed to access this address\n    mapping(address => mapping (address => uint256)) allowed;\n\n    //erc20 standard events\n    event Approval(address indexed tokenOwner, address indexed spender, uint tokens);\n    event Transfer(address indexed from, address indexed to, uint tokens);\n\n    //erc20 standard functions\n    function totalSupply() public view returns (uint256){\n        return totalSupply_;\n    }\n\n    function balanceOf(address tokenOwner) public view returns (uint){\n        return balances[tokenOwner];\n    }\n\n    function transfer(address receiver, uint tokens) public returns (bool){\n        require(tokens <= balances[msg.sender]);\n        balances[msg.sender] = balances[msg.sender].sub(tokens);\n        balances[receiver] = balances[receiver].add(tokens);\n        emit Transfer(msg.sender, receiver, tokens);\n        return true;\n    }\n\n    function approve(address spender, uint tokens)  public returns (bool){\n        allowed[msg.sender][spender] = tokens;\n        emit Approval(msg.sender, spender, tokens);\n        return true;\n    }\n\n    function allowance(address tokenOwner, address spender) public view returns (uint){\n        return allowed[tokenOwner][spender];\n    }\n\n    function transferFrom(address owner, address buyer, uint tokens) public returns (bool){\n        require(tokens <= balances[owner]);\n        require(tokens <= allowed[owner][msg.sender]);\n        balances[owner] = balances[owner].sub(tokens);\n        allowed[owner][msg.sender] = allowed[owner][msg.sender].sub(tokens);\n        balances[buyer] = balances[buyer].add(tokens);\n        emit Transfer(owner, buyer, tokens);\n        return true;\n    }\n\n}\n",
  "sourcePath": "/Users/hsiang/Desktop/via-issuer-test-master/contracts/erc/ERC20.sol",
  "compiler": {
    "name": "solc",
    "version": "0.5.7+commit.6da8b019.Emscripten.clang"
  },
  "schemaVersion": "3.2.2",
  "updatedAt": "2020-07-22T09:11:49.166Z",
  "devdoc": {
    "methods": {}
  },
  "userdoc": {
    "methods": {}
  }
}