{
  "contractName": "SignedMath",
  "abi": [
    {
      "constant": true,
      "inputs": [],
      "name": "MULTIPLICATOR",
      "outputs": [
        {
          "name": "",
          "type": "uint256"
        }
      ],
      "payable": false,
      "stateMutability": "view",
      "type": "function"
    },
    {
      "constant": true,
      "inputs": [],
      "name": "PRECISION",
      "outputs": [
        {
          "name": "",
          "type": "uint256"
        }
      ],
      "payable": false,
      "stateMutability": "view",
      "type": "function"
    }
  ],
  "bytecode": "0x609d610024600b82828239805160001a607314601757fe5b30600052607381538281f3fe7300000000000000000000000000000000000000003014608060405260043610603d5760003560e01c80630b540720146042578063aaf5eb6814605a575b600080fd5b60486060565b60408051918252519081900360200190f35b6048606c565b670de0b6b3a764000081565b60128156fea165627a7a72305820fb865baa2b0b393613b7cedbeae45824c03da4282a87e3a66adc7f356e907d360029",
  "source": "pragma solidity >=0.5.0 <0.7.0;\n\n\n/**\n * Advanced math library for signed integers\n * (including floats which are represented as multiples of 10 ** 18)\n */\nlibrary SignedMath {\n\n    int256 constant private INT256_MIN = -2 ** 255;\n\n    uint256 constant public PRECISION = 18;\n    uint256 constant public MULTIPLICATOR = 10 ** PRECISION;\n\n\n    /**\n     * @dev The product of a and b has to be less than INT256_MAX (~10 ** 76),\n     * as devision (normalization) is performed after multiplication\n     * Upper boundary would be (10 ** 58) * (MULTIPLICATOR) == ~10 ** 76\n     */\n    function floatMult(int256 a, int256 b)\n        internal\n        pure\n        returns (int256)\n    {\n        if (a == 0 || b == 0) return 0;\n\n        require(!(a == -1 && b == INT256_MIN), \"SignedMath.floatMult: OVERFLOW_DETECTED\");\n        int256 c = a * b;\n        require(c / a == b, \"SignedMath.floatMult: OVERFLOW_DETECTED\");\n\n        // normalize (divide by MULTIPLICATOR)\n        int256 d = c / int256(MULTIPLICATOR);\n        require(d != 0, \"SignedMath.floatMult: CANNOT_REPRESENT_GRANULARITY\");\n\n        return d;\n    }\n\n    function floatDiv(int256 a, int256 b)\n        internal\n        pure\n        returns (int256)\n    {\n        require(b != 0, \"SignedMath.floatDiv: DIVIDED_BY_ZERO\");\n\n        // normalize (multiply by MULTIPLICATOR)\n        if (a == 0) return 0;\n        int256 c = a * int256(MULTIPLICATOR);\n        require(c / a == int256(MULTIPLICATOR), \"SignedMath.floatDiv: OVERFLOW_DETECTED\");\n\n        require(!(b == -1 && a == INT256_MIN), \"SignedMath.floatDiv: OVERFLOW_DETECTED\");\n        int256 d = c / b;\n        require(d != 0, \"SignedMath.floatDiv: CANNOT_REPRESENT_GRANULARITY\");\n\n        return d;\n    }\n\n    /**\n        * @dev Returns the smallest of two signed numbers.\n        */\n    function min(int256 a, int256 b) internal pure returns (int256) {\n            return a <= b ? a : b;\n    }\n\n    /**\n        * @dev Returns the largest of two signed numbers.\n        */\n    function max(int256 a, int256 b) internal pure returns (int256) {\n            return a >= b ? a : b;\n    }\n}\n",
  "sourcePath": "/Users/hsiang/Desktop/via-issuer-test-master/contracts/utilities/SignedMath.sol",
  "compiler": {
    "name": "solc",
    "version": "0.5.7+commit.6da8b019.Emscripten.clang"
  },
  "schemaVersion": "3.2.2",
  "updatedAt": "2020-07-22T09:11:49.593Z",
  "devdoc": {
    "methods": {}
  },
  "userdoc": {
    "methods": {},
    "notice": "Advanced math library for signed integers (including floats which are represented as multiples of 10 ** 18)"
  }
}